:020000040000FA
:0600000002137B0207F968
:0300130002081CC4
:03002B0002118936
:03003300020EBEFC
:03003B0002087147
:0300430002102088
:0300530002072A77
:03006B00020E98EA
:1000830002078E0101FF01010503010F10FEFF4F5F
:100093001C4F1C4F1C4F1CFF1AF91A4F1CD62B0068
:1000A300000000742B000000000C0000000C000195
:1000B300FFFF0A1C053E8900000000040000000247
:1000C300000000010000800000004000000020004C
:1000D30000001000000008000000040000000200FF
:1000E300000001000080000000400000002000002C
:1000F30000100000000800000B0C0D0E0F10111271
:10010300131415161718191A010100D80500000059
:100113005006E80364006400B8010202000800000E
:10012300050207051E02051E020A0A03B80B028018
:100133003E0102FFFF1496511800020206303132CD
:100143003334353637383941424344454600286E07
:10015300756C6C20706F696E74657229003F3F3F48
:10016300000000807F0000803FF9021550B743BABA
:100173005100E7DB2E0000A0401000000008000043
:10018300000A0000001213C7604612139A603DE98B
:10019300687008F618F618F618F622748067F712D6
:1001A30001BC090909748067F72212139A601D12B2
:1001B30013C77005191919801A121214701F12121D
:1001C3003EC37003E667331919194007181818223C
:1001D30008080874FFF618F618F618F62212123EED
:1001E3006017121406702192F01214107019501730
:1001F30020F014080808090909E7F61819E7F618A2
:1002030019E7F61819E7F62212141060E6E8697088
:100213001F0808E62480F608E436F618547FB47FF6
:100223000CE654806007F6E418F618F62218182234
:10023300E9C6CC08C6CD08C6CE08C6CFC0E0E8C024
:10024300E0EAC0E0EBC0E009E9F809E7FA09E7FBF7
:10025300E6F918E6F8C3EC98ED99EE9AEBC2E7F5E8
:10026300F0EFC2E795F0500E600CEBCFFBEACEFA4D
:10027300E9CDF9E8CCF8EAA2E7D2E7FAEB33FB13CE
:10028300F5F0EEA2E7D2E7FEEF33FFC5F013A2E7E6
:1002930030E601B313C5F0C3C0E0C0F07F00C39BD9
:1002A300FB605B9418600C401AD0E023F9D0E0F8AF
:1002B30002038B8AF0E9486003D2F0E4AFF0FAF965
:1002C300F8803BEB30E40D89F0EA6003D2F0E4AF51
:1002D300F0F9CAF8EB30E30D88F0EF6002D2F0AF2B
:1002E300F0E4CAC9F8EB54076014FBC3EA13FAE954
:1002F30013F9E813F8EF135002D2E0FFDBEDD0E07F
:10030300C0E030E739C3E49FFFF5F0EC98FC42F01E
:10031300ED99FD42F0EE9AFE42F0D0E0F9D0E0F81C
:10032300E5F0607AE923F9EE20E742D8028067C35B
:10033300EF33FFEC33FCED33FDEE33FE80EAEC28C4
:10034300FCED39FDEE3AFED0E023F9D0E0F84002AF
:10035300801BC3EE13FEED13FDEC13FCEF135002F1
:10036300D2E0FF08B800067F7F74FF802EEF335082
:10037300178CF020F00260100CBC000C0DBD0008BF
:100383000EBE000408E860DFE933E813FFEE231331
:10039300FE4F4D4C8008E95480FFE4FEFDFCEE3334
:1003A300EF33F47004FCFD7E80D0E0FBD0E0FAD0A4
:1003B300E0F8D0E0CFC618CEC618CDC618CCC6F923
:1003C3002212139A7004181818221213C7700D748E
:1003D300FFF61819F61819F61819F622E75480666D
:1003E300F6121410700F12140670F014F608F608C3
:1003F300F608F680D1121406700CF608F60876801B
:1004030008E6447F80EC121241700C12121760BF91
:10041300E65480F6E480BB1212177005191919808F
:10042300A5E869700C763F18768018F618F6E8F997
:1004330022E6CDC0E018ECC0E0E633CD33CDD313D4
:10044300F6E719FCE7191933CC33C3947F400ECD7B
:100453009D502408E65480F6E418F6800FF4043D1A
:1004630014501408E6447FF6187680E418F618F65C
:10047300D0E0FCD0E0FD22CCD313CCFD18E4C6CBF6
:10048300C0E018E4C6CAC0E00808ED08C633E613A6
:10049300F618E433C675F003C3CA97CA09CB97CBE2
:1004A300199C40047D08802EBD000302056D16B61D
:1004B300FF050606081618C3CA33CACB33CB33CAA3
:1004C30027CA09CB37CB193CC37D08803E187D086A
:1004D30020E75CC633C6CA33CACB33CB33DDF1D591
:1004E300F0EB30E77BCA97CA09CB974ACB199C40FC
:1004F3006F4B7025E620E0218066187D08C3CA97FC
:10050300CA09CB97CB199CD3C633C6CA33CACB33DC
:10051300CB3350C9DDE7D5F0E1D3E4C636C608C610
:1005230036C608C636C608C636C61818188031C37C
:10053300CA97CA09CB97CB199CB34097C633C6CA8F
:1005430033CACB33CB33DD34D5F02EC6A2E0C6405D
:10055300C8CA27CA09CB37194A70BECB3CB480B985
:100563000808E63308E633601F181818D0E0FAD0FD
:10057300E0FBD0E0FCD0E0FD22187D08CA27CA09C1
:10058300CB37CB193CD3808013F618E4B67F11F632
:1005930018B6FF0EF618C60470D20808768080CA13
:1005A300F618F618F680C50012139A604F1213C797
:1005B3006012E7548066F61212147011121406705A
:1005C3003B090909F4F618F618F618F62212123E3A
:1005D300701512141008080860EAE6447FF61876CE
:1005E3008018E4F618F6221214106016121406701E
:1005F30012E4F608F608F608E65480F60909091825
:10060300181822EAC0E0EBC0E0ECC0E0EDC0E0E681
:1006130087F0A4FBACF008E687F0A42CFCE435F0EB
:10062300FA1809E687F0A42C4B60027401CA35F06E
:10063300FCE433FB09E687F0D2F7A42CCB35F0FCBE
:100643001908E687F0A42BCC35F0FBE433FD081939
:10065300E687F0D2E7A42C4ACB35F0CD3400FC0971
:10066300E687F0D2E7A42DCC35F0FDE433FA091880
:10067300E687F0D2F7A42CCD35F0CA3400FC08E6A7
:1006830087F0D2E7D2F7A42ACC35F07A7E20E70BA5
:100693000ACB33CBCD33CDCC33CC33CB33501470E7
:1006A30004ED30E00ED2F1E4CD3DCDCC3CCC3B505B
:1006B30005DA05C2F1EB547FC63308E63392F0FB4B
:1006C300E73309E733C39A502D2B70190C0D4C4DAA
:1006D30070151806E608C333700D20F10AA2F01353
:1006E300F6E418800B4024E4F630F002768018F626
:1006F30018F618F68024D33B14501074FFA2F0139D
:10070300F6187680E418F618F6800FA2F013F618A0
:10071300E63303F618ECF618EDF6D0E0FDD0E0FC76
:10072300D0E0FBD0E0FA22C0E074F2120BC5A2AF16
:10073300E433FED2AFE5A7FFE5A1F5085F541060EF
:10074300061224C575A1EFE5085F5408600812245A
:10075300CB75A1F7802BEFA2E0C0D0E508A2E09211
:10076300F01212C9158182F05017906198E0F89049
:100773000C35E0C398A2D265D0335002E8F075A1DE
:10078300FEEEA2E092AF7F01020C24C0E074F212ED
:100793000BC5A2AFE433FED2AF9061A4E0F8759B22
:1007A30000E59158540860087591F7122513802AC3
:1007B300E59158541060087591EF122519801BE8D4
:1007C300A2E0C0D0E591A2E092F01212C915818295
:1007D300F05007E0C2E0F01226699061A3E0F8E56B
:1007E300E9585404600E12263F75E9FB906193E0CB
:1007F300A2E640F2808BC0E074F2120BC5A2AFE414
:1008030033FED2AF9061A5E0F8E5BF58540460060B
:1008130075BFFB122681020784C0E0C0D0E8C0E0A8
:10082300E9C0E0C082C083E5C1C0E0900BA1E0F85D
:10083300742028F582740B3400F583D0E0F0900B1C
:10084300A0E0F8A3E0687006E595900BA3F0900B89
:10085300A1E004F0C394804002E4F0A374C6F0D096
:1008630083D082D0E0F9D0E0F8D0D0D0E032C0E03D
:1008730074F1120BC5900C24E0F8A3E068701553D3
:100883009AFBA37401F07AD07B07121F974386402B
:10089300C290802C5386BFD290C2E9900C24E0F51D
:1008A3000874012508F074A42508F582740B34003C
:1008B300F583E0F5C1900C24E0C394804002E4F09A
:1008C3007F02020C24C3E498F8E499F91209098021
:1008D30026C3E49AFAE49BFBE920E7E9120909E459
:1008E30098F8E499F922C3E498F8E499F91209090C
:1008F300E498F8E499F9C3E49AFAE49BFB22EB2029
:10090300E7CFE920E7E0B90010BB0008E88AF084EC
:10091300F8AAF022E4FBC8FA22EB70227B10C8335A
:10092300C8C933C9335007C39AC3DBF280069A5050
:10093300012ADBEAC833F4C8C933F4C9FA2275F0D3
:1009430008E4C833C8C933C933C99AC99B5004C919
:100953002AC93BD5F0ECFBC833F4C8E4C9FA221228
:1009630009A220F01430E72B74FFFCFBFA747F809C
:1009730022E4FCFBFA7480801AB48008BC00F2BB4A
:1009830000EF800F50EBF9E4C39AFAE49BFBE49C7D
:10099300FCE499C6CC18C6CB18C6CA18C6F922E41B
:1009A300C9C608CAC608CBC6D3330308CCC633921C
:1009B300F0C3947F402E94184019C9B90704CACBD9
:1009C300CC225025C309CA33CACB33CBCC33CC3367
:1009D300D9F422F4600DC9CCC313CB13CBCA13CA09
:1009E300D9F6CC22E4FCFBFA2214FCFBFA22080819
:1009F30008EAC0E0EBC0E086F0E7A4FA180986F045
:100A0300E7A42AFA180986F0E7A42AFA180986F057
:100A1300E7A42AFA1986F0E7A4FBE5F02AFA1908F5
:100A230086F0E7A42BFBE5F03AFA190886F0E7A471
:100A33002BFBE5F03AFA18180986F0E7A4C5F02B6A
:100A4300FBE43AFA1908E7C5F0C6A426F6E5F03B3D
:100A5300FBE43AFA1886F0E7A4F6E5F00826F6E494
:100A63003B08F6E43A08F6D0E0FBD0E0FA220808A7
:100A730008E630E71112127C120A89080808C644F6
:100A830080C618181822181818E9799EC608CAC60D
:100A930008CBC608CCC6C370207996CACBCC7019D4
:100AA300798ECBCC70137986CC700EF9802ACA3339
:100AB300CACB33CBCC33CC331930E7F2CCCBCA33EC
:100AC30050147004EA30E00DE4CA3ACACB3BCBCCF5
:100AD3003CCC500209C3E913C6CC182313C6CB1868
:100AE300C6CA18C6F922E4CFC0E0E4CEC0E0E4CD24
:100AF300C0E0E4CCC0E075F020C3E633F608E6338B
:100B0300F608E633F608E633F6181818EC33FCED6E
:100B130033FDEE33FEEF33FFC3EC9709ED9709EE98
:100B23009709EF97191919400FFFEC97FC09ED97F7
:100B3300FD09EE97FE191906D5F0BEECF709EDF79E
:100B430009EEF709EFF7191919D0E0FCD0E0FDD051
:100B5300E0FED0E0FF222518C582C0E0E51934FF8E
:100B6300C583C0E0E518C3958224F810AF088583D8
:100B7300198582188008858319858218D2AFCEF033
:100B8300A3E520F0A37808E608F0A3DEFAEFF0A3CC
:100B9300E58124FAF8E608F0A3E608F0A3E608F0F6
:100BA300A30808E608F0A3E608F0A315811581D091
:100BB300E0FED0E0F8158115811581E8C0E0EEC0B4
:100BC300E022C0D02518C582C0E0E51934FFC583F3
:100BD300C0E0E518C3958224F310AF088583198517
:100BE30082188008858319858218D2AFC8F0A3E9DB
:100BF300F0A3EAF0A3EBF0A37908E709F0A3D8FA8E
:100C0300ECF0A3EDF0A3EEF0A3EFF0A3D0E0F0A39C
:100C1300D0E0F0A3D0E0F0A3E520F0A3E5F0F0A34B
:100C230022851983851882E0C0E0A3E0F9A3E0FAE6
:100C3300A3E0FBA37808E0F608A3DFFAE0FCA3E057
:100C4300FDA3E0FEA3E0FFA3E0C0E0A3E0C0E0A3B8
:100C5300E0F5D0A3E0F520A3E0A3F5F010AF0885FD
:100C630083198582188008858319858218D2AFD0AD
:100C730082D083D0E0F8D0E0321213FBB900030234
:100C83000CBEE490030178FD790F8002F0A3D8FC39
:100C9300D9FA9011FDAA82AB83900086780379027A
:100CA3008015E493A3AC82AD838A828B83F0A3AADD
:100CB30082AB838C828D83D8E9D9E77582D0758323
:100CC3009A74041211017582B77583297400121185
:100CD3000175F0108E1A8F1B85821F85831E851860
:100CE30082851983E0CEA3E0CF851F82851E83EB27
:100CF300C9EAC8EDCBECCAC3E833C8E933C9EA3360
:100D0300CAEB33CBC3EA9EF51DEB9FF51CB350042E
:100D1300AB1CAA1DEC33CCED33CDD5F0DAAE1AAF54
:100D23001B2212139A601C1213C76017121410703F
:100D3300071214067001D322C0D01214067006D015
:100D4300D0B322C32233D0D0501430E0F6C3E79699
:100D53000809E7960809E7960809E796B32220E011
:100D6300D5E6970809E6970809E6970809E697B3D1
:100D73002212139A601B1213C76016121410700705
:100D8300121406600CB322C0D01214067005D0D022
:100D930022C32233D0D0501330E0EBC3E7960809C7
:100DA300E7960809E7960809E7962220E0E4E69724
:100DB3000809E6970809E6970809E69722D083D041
:100DC30082ECC0E0EDC0E0E493A3FCE493A3FDED6B
:100DD3004C600D120EDCEC24FFFCED34FFFD80EFC4
:100DE300E493A3FCE493A3FDED4C600D120FA5EC7B
:100DF30024FFFCED34FFFD80EFD0E0FDD0E0FCE408
:100E030093A3C0E0E493C0E022D083D082E9C0E0A2
:100E1300E493A3C386F0C5F095F0F908E493A386A1
:100E2300F0C5F095F0700BE493A3C3994005E90472
:100E33008002A3E475F002A42582F582E5F03583F0
:100E4300F583D0E0F9E493A3C0E0E493C0E0228506
:100E53001983851882E0A3FEE0A3F5207808E0A3B8
:100E6300F608DFFAE0A3FFE0A3C0E0E0A3C0E0E000
:100E7300A3C0E0E0A3C0E0E0A3C0E010AF08858218
:100E8300188583198008858218858319D2AFD0838A
:100E9300D082021107C0E074F2120BC5A2AFE43393
:100EA300FED2AFE589A2E15003122393758900C2F4
:100EB300C5EEA2E092AF7F01020C24C0E074F212EF
:100EC3000BC5A2AFE433FED2AFE58BA2E050031211
:100ED3002393758B00C2E880D8C0E0C3E4939608DF
:100EE3007401939618400FE4936670080874019395
:100EF300661870007019A3A3C3E493960874019352
:100F03009618A3A3400DD0E0D0E0D0E0020DFCA3DF
:100F1300A3A3A3A3A3D0E0227404800474028000DB
:100F2300CCC0E0EDC0E0E518C39CCCAD1950011D69
:100F330010AF068C188D1980068C188D19D2AF123C
:100F43001065D0E0FDD0E0FC2274028000CCC0E04C
:100F5300EDC0E0E518C39CCCAD1950011D10AF06E0
:100F63008C188D1980068C188D19D2AF121043D0AE
:100F7300E0FDD0E0FC2212139A60251213C7602013
:100F83001214107003021406080808E7667010189C
:100F930019E766700A1819E76670041819E76622DC
:100FA300F422C0E0C0F088F0E4936670080874018E
:100FB3009366187000A8F0A3A3700BD0F0D0E0D014
:100FC300E0D0E0020DFCA3A3D0F0D0E022D083D088
:100FD30082CCC0E0E493A360061210861470FAE496
:100FE30093A360061211E91470FAD0E0FCE493A312
:100FF300C0E0E493C0E022C008C3E096F50808A36C
:10100300E096420808A3E096420808A3E096420847
:10101300A2D265D033E5087001D3D00822C0E074B2
:10102300F2120BC5A2AFE433FED2AFC2C0E5D1A228
:10103300E45003122423EEA2E092AF7F01020C24BA
:10104300CAC0E0E493A3C582CCC582C583CDC58362
:10105300F0A3C582CCC582C583CDC583DAE5D0E0D4
:10106300CA22CAC0E0E0A3C582CCC582C583CDC570
:1010730083F0A3C582CCC582C583CDC583DAE6D010
:10108300E0CA22C0E0E493A3D39C5010E493A3C32B
:101093009C400AD0E0D0E0D0E0020FEDA3A3A3D0A0
:1010A300E022C008C3E096F50808A3E096420808CA
:1010B300A3E096420808A3E09645087001D3D00840
:1010C300227009080808226016181818C6C333C608
:1010D30008C633C608C633C608C633C6D5E0EA22F7
:1010E300C5822518C582C583351910AF07F5198543
:1010F30082188007F519858218D2AFC58322C09F55
:10110300F59FE473D09F22D083D082C09FE493C025
:10111300E0740193C0E0740293F59F227404800A83
:1011230074038006740280027401C0E0F404121197
:101133003AD0E01213D6222518F58210AF08F5181D
:10114300400215198008F51840021519D2AF851908
:101153008322C0D0251810AF08F518500205198056
:1011630008F51850020519D2AFD0D022BB0102E70F
:1011730022C082C08389828A83BB0003E08002E4A9
:1011830093D083D08222C0E0C0D0E8C0E0E5A8D2EB
:10119300AFC2C7A2E792AFD0E0F8D0D0D0E03260C0
:1011A30016080808C6C313C618C613C618C613C63E
:1011B30018C613C6D5E0EA22C3E0C696F608A3E034
:1011C300C696F608A3E0C696F608A3E0C696F622EE
:1011D300251810AF08F518400215198008F51840B6
:1011E300021519D2AF22C0E0E493A36C7009D0E0DA
:1011F300D0E0D0E0020FEDA3A3D0E022E0667010B0
:1012030008A3E066700A08A3E066700408A3E0661A
:1012130022181818E6084608700AE608C333700552
:10122300E633F4220822E76670100809E766700ABD
:101233000809E76670040809E76622191919E7091E
:101243004709700AE709C3337005E733F42209221B
:10125300C3E09608A3E09608A3E09608A3E096A24D
:10126300D265D03322C3E096F008A3E096F008A33A
:10127300E096F008A3E096F022181818E4C396F657
:1012830008E496F608E496F608E496F622E026F6D5
:1012930008A3E036F608A3E036F608A3E036F62204
:1012A300E026F008A3E036F008A3E036F008A3E058
:1012B30036F022E627F60809E637F60809E637F698
:1012C3000809E637F622C0E0E8C0E0E58124FCF82F
:1012D300E6A2E7D0E0F8D0E022E657F60809E657A1
:1012E300F60809E657F60809E657F622E056F60827
:1012F300A3E056F608A3E056F608A3E056F622E06C
:1013030056F008A3E056F008A3E056F008A3E05611
:10131300F022700422600D18C6C333C608C633C654
:10132300D5E0F41822E647F60809E647F60809E689
:1013330047F60809E647F622C3E09608A3E09608B5
:10134300A3E09608A3E09622C6F4C608C6F4C6082E
:10135300C6F4C608C6F4C622600D08C6A2E713C6C3
:1013630018C613C6D5E0F322C3E7960809E7960823
:1013730009E7960809E7962275D00075814075182C
:101383000175190300020C7CE6F008A3E6F008A33C
:10139300E6F008A3E6F022E6084608C3134608333E
:1013A3006002E633F422600C08C6C313C618C613E2
:1013B300C6D5E0F422E0F608A3E0F608A3E0F608B9
:1013C300A3E0F622E7094709C3134709336002E79D
:1013D30033F422CAC0E0E6F0A308DAFAD0E0FA2236
:1013E300EAF0A3EBF0A3ECF0A3EDF022E0FAA3E024
:1013F300FBA3E0FCA3E0FD22E5C754F84401F5C7D5
:10140300790122E7C33319471947194722E6C33342
:10141300184618461846222518F582E43519F5832F
:1014230022C2AF75D69F0200002212110A46310074
:1014330012110A6D310012110ABE310012110A6E27
:10144300320012110A26330012110AEE3300121170
:101453000AAE340012110AF2340012110A173500D1
:1014630012110A5A350012110AA7350012110AFF88
:10147300360012110A85370012110AA33700121120
:101483000ACD370012110AE7370012110AF63700A6
:1014930012110A01380012110AC1380012110A1A76
:1014A300390012110ADC390012110AE43900121151
:1014B3000AB73A0012110A6F3B0012110ADB3B0014
:1014C30012110A063D0012110A2B3D0012110A3CAB
:1014D3003D0012110AB23D0012110A443E001211DE
:1014E3000A9C3E0012110A5C3F0012110A7B3F0066
:1014F30012110A8A400012110A9C400012110AEFCD
:10150300400012110A2C410012110A394100121134
:101513000ABC420012110A1B440012110A4D440076
:1015230012110AE2440012110A1B450012110A6744
:10153300450012110A83460012110ACC4800121109
:101543000AD7480012110AE2480012110AED4800B6
:1015530012110AF7480012110A02490012110A1C5B
:10156300490012110A26490012110A3049001211CA
:101573000A3B490012110A46490012110A6E49003A
:1015830012110AC9490012110AD3490012110AF7AC
:10159300490012110A1B4A0012110A794A0012115A
:1015A3000ABD4A0012110AD94A0012110A504B000F
:1015B30012110A884B0012110AD44B0012110A317E
:1015C3004C0012110AEB4C0012110ACF4E001211FB
:1015D3000A284F0012110A58500012110A7E5000B7
:1015E30012110A07520012110A83550012110A55EB
:1015F300570012110A1E590012110ACB5900121179
:101603000A365B0012110AD55B0012110A225C0034
:1016130012110A8C5C0012110A9B5C0012110A223F
:101623005F0012110AD4600012110A416100121105
:101633000A20620012110A39630012110AB664000B
:1016430012110AD5640012110A2A650012110A2F19
:10165300660012110A57660012110AAF66001211D2
:101663000A8E670012110AD2670012110A1D680060
:1016730012110A88680012110AC9690012110A2D91
:101683006A0012110A7B6B0012110ADB6D00121142
:101693000A0C6E0012110AC46F0012110A197000AD
:1016A30012110A1D710012110ABA710012110A13E4
:1016B300720012110AC6720012110A687300121125
:1016C3000A08740012110AAD740012110A198A0172
:1016D30012110A628A0112110ADA8C0112110A1913
:1016E3008D0112110A638D0112110AA18E011211CB
:1016F3000A008F0112110A348F0112110A728F012D
:1017030012110AE5900112110AA8930112110ADBC2
:10171300940112110A71950112110AC89E01121146
:101723000A629F0112110A49A20112110A63A3015D
:1017330012110AC4A30112110AE0A40112110A260C
:10174300A60112110A08A70112110AEDA80112112C
:101753000AFEAA0112110A6CAB0112110A3EAC0176
:1017630012110AF5AC0112110AFFAC0112110A2E73
:10177300AD0112110AEBAD0112110AC2AE01121131
:101783000A89AF0112110A24B00112110A9BB00198
:1017930012110AC4B00112110AE6B00112110A367D
:1017A300B30112110A0EB40112110A52B40112113B
:1017B3000ABAB40112110A72B50112110AA4B501D1
:1017C30012110AE8B50112110A1EB60112110A6AB2
:1017D300B60112110ABFB60112110AC4B6011211E1
:1017E3000A17B70112110A3CB70112110A4CB801CA
:1017F30012110AC4B80112110A20B90112110AAC5C
:10180300B90112110A9BBC0112110A7EBD0112110A
:101813000A15BF0112110A4BC10112110AF9C101C4
:1018230012110AAAC20112110AECC40112110A8F81
:10183300C50112110AD6C50112110A82C70112117C
:101843000A96C70112110AA0C70112110AC8C701DB
:1018530012110AD4C70112110AF3C70112110A3D6A
:10186300CA0112110A72CA0112110A7CCA011211A9
:101873000AB0CA0112110A11CB0112110A60CC017C
:1018830012110AA4CC0112110A4CCD0112110A2F14
:10189300CE0112110ADACE0112110A26D001121159
:1018A3000A24D10112110ACAD10112110A5AD20112
:1018B30012110A71D20112110AA8D20112110AB22D
:1018C300D20112110ABDD20112110ADBD201121187
:1018D3000A1FD30112110A7CD30112110AA1D301E9
:1018E30012110ABBD30112110A4DD40112110A7746
:1018F300D50112110AEED50112110AD5D601121122
:101903000A0BD70112110A7FD70112110AF9D70165
:1019130012110AFDD80112110AF3D90112110AA8F2
:10192300DA0112110ABBDB0112110A57DC01121191
:101933000AE4DC0112110AC2DD0112110AFADD0107
:1019430012110A52DE0112110A1BDF0112110A3CA5
:10195300DF0112110AC3DF0112110AE7DF011211BD
:101963000A09E00112110A52E00112110A68E201A8
:1019730012110A4FE30112110AFAE30112110A3795
:10198300E60112110A87E60112110AC7E6011211D4
:101993000A09E70112110A63E70112110A91E7012B
:1019A30012110AB5E70112110A08E80112110A36E9
:1019B300E80112110A6FE80112110ACEE8011211AF
:1019C3000A3BE90112110A8AEA0112110AADEC017C
:1019D30012110A16ED0112110A3FED0112110ACA82
:1019E300ED0112110A36EE0112110A81EE011211F4
:1019F3000AA5EE0112110AC9EE0112110A25EF011F
:101A030012110A40EF0112110AF9EF0112110A4FE4
:101A1300B80412110A8EB80412110A788002121146
:101A23000ABE800212110A9E810212110AA08202CA
:101A330012110AA3830212110A2F850212110A8DB1
:101A4300850212110A4A860212110A6887021211CC
:101A53000AD9870212110A15880212110A63880231
:101A630012110A6D880212110AB1880212110A0DAD
:101A7300890212110AA8890212110A258A02121177
:101A83000AF48A0212110A8D8B0212110AAD8B021B
:101A930012110AE38B0212110A148C0212110AD5D5
:101AA3008C0212110AE58C0212110A398D021211ED
:101AB3000A548D0212110A668D0212110A6F8D02E9
:101AC30012110AC98D0212110A258E0212110A710E
:101AD3008E0212110A8C8E0212110ABD8E0212118D
:101AE3000ADA8E0212110AE68E0212110A5A9002C3
:101AF30012110A73900212110ADA900212110AEDFE
:101B0300900212110AFB900212110AAF91021211F4
:101B13000A93920212110A99930212110A23940250
:101B230012110A2D940212110A9A940212110AB187
:101B3300940212110AE3940212110A1C9502121163
:101B43000A46950212110AA7950212110AC79502B5
:101B530012110AE5950212110A2B960212110A516B
:101B6300970212110A9E970212110ACD97021211BF
:101B73000A43980212110A6B980212110AA49802DE
:101B830012110AB2980212110A0A990212110A5981
:101B9300990212110A98990212110AC89902121194
:101BA3000AF4990212110AFF990212110A1D9A02EC
:101BB30012110ADF9A0212110AE99A0212110A2477
:101BC3009B0212110A3A9B0212110A439B02121141
:101BD3000A989B0212110AAC9B0212110ABA9C02C8
:101BE30012110ACD9C0212110AE29C0212110A84FC
:101BF3009D0212110A079E0212110AC59E021211BA
:101C03000AD09E0212110AFC9F0212110A18A002A6
:101C130012110A6AA00212110AA9A00212110ABE25
:101C2300A00212110A20A10212110AAFA10212117D
:101C33000AFAA10212110A4BA40212110AC9A40240
:101C430012110A3EA50212110A60A70212110A78A4
:101C5300A70212110A7BA70212110A87A702121107
:101C63000A9BA70212110AA3A70212110AD6A702FE
:101C730012110A86A80212110AFCA80212110A6F95
:101C8300A90212110A23AA0212110AD8AA021211D6
:101C93000AF7AA0212110A97AB0212110AA3AB02A6
:101CA30012110ACEAB0212110AD1AB0212110A3B76
:101CB300AC0212110A63AD0212110A3BAE021211F9
:101CC3000AC6AE0212110ADFAF0212110A9CB00259
:101CD30012110AD5B00212110A06B10212110AC476
:101CE300B10212110AF4B10212110ACFB202121197
:101CF3000A68B30212110AF3B30212110AA4B4025E
:101D030012110A27B50212110A59B50212110A9AC1
:101D1300B50212110A80C90312110AE5C90312118F
:101D23000A22CA0312110A71CA0312110A87CC03C9
:101D330012110A6ACE0312110AD4D10312110A0F27
:101D4300D20312110A31D20312110A94D2031211CF
:101D53000AC8D20312110AEBD20312110A18D303D1
:101D630012110A74D30312110ABBBD0312110A39EB
:101D7300BE0312110A6FBE0312110ADBBE03121156
:101D83000A4EC00312110A6AC00312110AAFC0033C
:101D930012110A3DC10312110A96C10312110AC39B
:101DA300C20312110AD5C30312110A32C40312115A
:101DB3000A9EC40312110AFFC40312110A40C50389
:101DC30012110AEDC50312110AFFC60312110A2AE2
:101DD300C70312110A75C70312110ABCC7031211F4
:101DE3000A4EC80312110A09C90312110AC0D30308
:101DF30012110ACAD30312110A16D40312110A8448
:101E0300D40312110AA5D40312110A14E602121103
:101E13000AE9D70312110AF2D70312110A45D803AC
:101E230012110A6ED80312110AD5D80312110A66C9
:101E3300D90312110AA8D90312110AF2D9031211F4
:101E43000A51DA0312110A7DDA0312110A0EDB03B7
:101E530012110A4DDB0312110A8CDB0312110AC1A2
:101E6300DB0312110AD3DB0312110AE5DB031211A0
:101E73000A04DC0312110A0DDC0312110AC3DC038A
:101E830012110A03DD0312110ADEB30412110A024E
:101E9300310012110A36A50412110A7FA50412118A
:101EA3000ACFA60412110A59E60212110A98E70290
:101EB30012110AD4E70212110A93E90212110ABCA1
:101EC300E90212110A4FEC0212110A93EC021211E9
:101ED3000A1CEE0212110AB4EE0212110A1CEF02DE
:101EE30012110ABDEF0212110AFFEF0212110A3F8B
:101EF300F00212110ACAF10212110A3AF302121184
:101F03000A5FF50212110A8DF50212110AB4F502E5
:101F130012110ABDF50212110A44F60212110A62E5
:101F2300F90212110A0BBA0412110A21BA0412118E
:101F33000A6B970412110A7E970412110A1B980464
:101F430012110A56980412110A71980412110A9672
:101F5300980412110ADB980412110A0C9904121145
:101F63000A3D990412110AC39A0412110A04B8040F
:101F730012110A8BB00412110AC1B00412110ADD46
:101F8300B00412110A1FB10412110A2FB104121165
:101F93000AC4B10412110ACEB10412110AE6B10443
:101FA30012110A51FF0212110A9CFF0212110AA711
:101FB300FF0212110AE3F90212110A96FA02121130
:101FC3000AC8FB0212110ADDFD0212110A1EFE02EB
:101FD30012110A7FFE0212110AECFE0212110A1FED
:101FE300FF0212110AF9740012110A457500121149
:101FF3000AD4760012110A34770012110AA5770069
:1020030012110A7B780012110AD9780012110AFA08
:10201300780012110A45790012110ABB79001211D6
:102023000A777A0012110A9B7A0012110AFC7A00CD
:1020330012110A8C7B0012110AF77B0012110A9C01
:102043007C0012110AED7D0012110A147E00121198
:102053000AC17E0012110AEF7E0012110A7CB50438
:1020630012110AC2B50412110ACFB50412110A2BB8
:10207300AF0412110A76AF0412110A81AF041211D0
:102083000A309B0312110A859B0312110A799C03E0
:1020930012110A129D0312110A5C9D0312110ABE4A
:1020A3009D0312110AD29D0312110AB49F03121148
:1020B3000ABBA00312110AF6A00312110AF6A20327
:1020C30012110A11A30312110A60A30312110A7653
:1020D300A30312110A83A30312110AB7A303121154
:1020E3000AD0A30312110A7AA40312110AD4A40377
:1020F30012110A22A50312110A47A60312110A6933
:10210300A60312110AF1A80312110A26A903121138
:102113000AACA90312110A21AA0312110A26AA035F
:1021230012110A62AA0312110AC1AA0312110A9315
:10213300AB0312110AC7AB0312110AD1AB0312117D
:102143000AD4AB0312110AD7AB0312110A54AC031E
:1021530012110A6FAC0312110A82AC0312110AAEF8
:10216300AC0312110AE9AC0312110AECAC0312110D
:102173000AF7AC0312110A33AD0312110AEBB204CE
:1021830012110AFCB20412110A85B30412110A8354
:10219300E60312110AD2E60312110A74E8031211BC
:1021A3000A32EA0312110A7AEA0312110A9CEB03B8
:1021B30012110ACDEC0312110AEFEC0312110A4BB0
:1021C300ED0312110ACDED0312110A00800312115F
:1021D3000A2E800312110A84810312110A02820358
:1021E30012110A7E820312110AE7820312110A2ACC
:1021F300830312110AB3830312110A5984031211C0
:102203000AE5840312110A27850312110A9389032D
:1022130012110A138B0312110AF18B0312110A20F4
:102223008C0312110A528E0312110AD29003121157
:102233000A8B910312110AA8920312110AFF950344
:1022430012110A0F960312110A7C970312110A083E
:10225300980312110A31990312110A169A031211E3
:102263000A989A0312110A33F00112110AEDF001D0
:1022730012110A5FF10112110AFBF10112110A6B2B
:10228300F20112110A4FF50112110A26F601121179
:102293000A93F60112110A10F80112110ADAF80171
:1022A30012110A4AF90112110A13FB0112110A262B
:1022B300FC0112110ABFFC0112110A85FD01121162
:1022C3000AC18C0412110A158D0412110A6D8D04B2
:1022D30012110AB88D0412110A1A8E0412110A86F9
:1022E3008E0412110A398F0412110A7A8F04121103
:1022F3000A968F0412110AF28F0412110A30900405
:1023030012110A32A70412110A63A70412110A1D3B
:10231300A80412110A83A80412110A589B0412116B
:102323000AE49C0412110AB1B40412110AC2B404DF
:1023330012110A62B50412110ABBAA0412110AC9C6
:10234300AA0412110AECFF0112110A617F00121193
:102353000A717F0012110A8C7F0012110AED7F00AF
:1023630012110AE9B10412110A6EB20412110AD24F
:10237300B20412110A4AAC0412110A6CAC04121111
:102383000AD2AC0412110AF2AC0412110A38AD04D9
:1023930012110A93AD0412110AB0840412110AC671
:1023A300840412110AE0840412110ADA850412115A
:1023B3000AFF850412110A1C860412110A398604C5
:1023C30012110A5E860412110A86860412110ACEBD
:1023D300860412110A49870412110AF9870412119B
:1023E3000A61900412110A6F900412110AE9900411
:1023F30012110ACD910412110A86930412110AE9EB
:10240300B90412110A01EE0312110A6DEE0312113F
:102413000A16EF0312110A08F00312110A66F103F8
:1024230012110AC1F10312110A19F20312110A61FE
:10243300F20312110AFDF20312110A80F3031211BF
:102443000AB2F30312110AD1F30312110A78F40347
:1024530012110AF2F40312110A12F50312110A1FE0
:10246300F50312110A0AFA0312110A5FFA03121191
:102473000A5BFC0312110A8DFC0312110AAFFC0361
:1024830012110AC8FC0312110AE1FC0312110AEB30
:10249300FD0312110A86FE0312110ACAAD041211BA
:1024A3000AEEAD0412110A07AE0412110A3AAE0481
:1024B30012110A6BAE0412110A99AE0412110AFB2F
:1024C300AE0412110A0AAF0412110A14AF04121156
:1024D3000A21AF0412110A8F9D0412110AB59D043B
:1024E30012110AF29D0412110A019E0412110A200C
:1024F3009E0412110A889E0412110A919E0412115D
:102503000AF09E0412110A149F0412110AD39F04A5
:1025130012110AE09F0412110AF19F0412110A22F8
:10252300B90412110A3FB90412110A3880041211B6
:102533000A90810412110A9D810412110AB08104C8
:1025430012110ACF810412110AE5810412110AF94A
:10255300810412110A6E820412110AD38204121129
:102563000A83830412110A58840412110A6884042A
:1025730012110A77840412110A4CB60412110A705C
:10258300B60412110A98B60412110AC0B604121145
:102593000AA1A20412110AC8A20412110AE9A20490
:1025A30012110A4EA30412110A1FA00412110A38B1
:1025B300A00412110A44A00412110A58A004121113
:1025C3000A76A00412110A80A00412110A8AA00438
:1025D30012110A9DA00412110AFFA00412110A3855
:1025E300A10412110A67A10412110AB5A104121160
:1025F3000A04A20412110A1FA20412110A29A20436
:1026030012110A50A20412110A96A20412110A8589
:10261300B70412110AA1B70412110A49BA0412111C
:102623000A2CDD0312110A56DD0312110A72DD03AF
:1026330012110A85DD0312110A9BDD0312110AF838
:10264300DD0312110A2BDE0312110A6CE2031211CD
:102653000A92E30312110AC5E30312110A11E403F8
:1026630012110A53E50312110A7BE50312110A90B2
:10267300E50312110AA0E50312110AE4E50312119E
:102683000A45E60312110A55E60312110AC5FE03B1
:1026930012110AE0FE0312110A09FF0312110A23A1
:1026A300FF0312110A48FF0312110A67FF031211F5
:1026B3000A7FFF0312110AADFF0312110AC7FF03BA
:1026C30012110ADEB80412110AEB930412110AF272
:1026D300930412110AFE940412110A2E9504121186
:1026E3000A54950412110A77950412110A99950454
:1026F30012110AD3950412110A39960412110A729F
:10270300960412110ABE960412110AEB96041211D2
:102713000A0B970412110A0CA90412110A2EA90418
:1027230012110A26AA0412110AB8AA0412110AD90C
:10273300FE0112110A4BFF0112110A89FF01121146
:102743000ACAFF0112110AB8880412110AD78804B1
:1027530012110A26890412110A42890412110A73FA
:10276300890412110A83890412110A90890412112F
:102773000A9D890412110A898A0412110AC78A045C
:1027830012110AD18A0412110ADE8A0412110AEE06
:102793008B0412110AF98B0412110A0B8C04121107
:1027A3000A148C0412110A1E8C0412110A3F8C04A1
:1027B30012110A3FF50312110A84F90312110AA038
:1027C300F90312110A98B80412110A94B9041211E8
:1027D3000AE5B60412110A0FB70412110A5EB9040E
:1027E30012110AC1B90412110A2BBA0412110A6C8C
:1027F300AD0312110A8AB20312110ACDE4021211B7
:102803000A2AE40212110ADDE20212110A88E00226
:1028130012110AA6DF0212110A8ADF0212110A2A12
:10282300DF0212110AE2DE0212110A30DE02121175
:102833000AA2DD0212110AC7300012110AA13000E8
:1028430012110A95DD0212110A8FDA0212110A8897
:10285300300012110A36300012110AF1D702121198
:102863000ABAD60212110A0ED60212110A54D4025F
:1028730012110A04D20212110A8BD10212110A3266
:10288300D10212110AC2D00212110A99D0021211F6
:102893000A79CE0212110A45CE0212110A12CE0291
:1028A30012110AF6CD0212110A0FCD0212110AC734
:1028B300CC0212110A12CB0212110A92CA0212118D
:1028C3000A8FCA0212110A8CC90212110A5AC902CA
:1028D30012110A97C80212110AEE2F0012110A4AA6
:1028E3002F0012110AC02E0012110A5F2E001211BE
:1028F3000A0D2E0012110AC2C60212110A53C60291
:1029030012110A25C60212110A22C60212110AFB6B
:102913002D0012110A0FC60212110ABAC5021211B2
:102923000AA9C50212110A9BC40212110A65C40244
:1029330012110ABD2D0012110A00A50412110A1367
:10294300C40212110AB4C30212110A83C302121180
:102953000A4BC00212110A0BC00212110AFFBF0276
:1029630012110A5FBF0212110A9FBE0212110A1747
:10297300BC0212110AA8B90212110A66B902121195
:102983000A3AB80212110AEFB70212110A2EB7025D
:1029930012110A01B70212110ACFB50212110A3934
:1029A300B60212110A32E60212110A09B602121114
:1029B3000A55D50300000080FBE47300013636019D
:1029C30001000102010001030100010401060605E3
:1029D300020000070100340801000F090401010D82
:1029E3000100FF0E08000017020000190100FF1A82
:1029F3000100011B0100FE1C0100081D0200001F55
:102A030001000120010001210200002301000F2425
:102A13000200002601000127010008280200FF2A06
:102A23000100072B0102402C0100002D0100012EA3
:102A33000100012F0100FF30010B1C310800003A97
:102A43000100083B01000F2F01000001017101018A
:102A53000101011101010131010101010180011095
:102A63000161013B001400630173017201620143C0
:102A7300010001130106013D0135000401120100AB
:102A83000100010001000104010401330133013C91
:102A930001440132013600000100016501000135E6
:102AA300008101000105018201830100010304711A
:102AB3000402046004110470040204020401040209
:102AC30004100461040004140463047304720462B4
:102AD3000443040004130406040004000404041261
:102AE3000400040004000400045104640000040012
:102AF300040004440400040004000400046504000A
:102B03000435048104640005040004830400040301
:102B1300027102300160021102700201020202021C
:102B2300028002100261023A0041006302730272E2
:102B33000262024302000213023800000200020490
:102B43000212020002000200020002040204023721
:102B53000037003C02440200023900000200026513
:102B63000200023502810200020502820283020092
:102B730002010371030103010301030103010322A2
:102B83000302030103100300030003000300030017
:102B930003000300034203000324030603000300AE
:102BA300030403120325032303250323030403045C
:102BB3000300030003000344030003000323030093
:102BC30003650321003503810300030503000300AC
:102BD3000300030300710030016000110070003135
:102BE3000220035004800010006100000014006301
:102BF300007300720062004300000013000600002F
:102C030000000004001200000000000000000004A7
:102C1300000400370037003C0244000000000000BD
:102C23000000006500000035008100000005000081
:102C3300008300000036000100060000000F0000C2
:102C4300000000000000000000000003FFFF000080
:102C53000403FFFF0000FFFF0FF4010005C404039A
:102C630020000100130B000000000000000003011E
:102C73000F0121170657170851170B6F17109116DD
:102C83000A8717022717054517072D170C03170D7A
:102C93001517FF000000007F2213001F2201007F91
:102CA300220200E9210300EF210400F5210500FBC6
:102CB3002106000722FFFF0000591B891B5F1B65CC
:102CC3001B831B771B711B8F1B951B9B1BA71B6BED
:102CD3001B531B4D1B00160F00000B150B020002AC
:102CE300220F320000064F1C611C671C231B6D1C46
:102CF3001D1B291B140AE5D5C5B5A5A595858575A5
:102D030065AF1CCD1CD31CB51CC11CBB1C5D1A5765
:102D13001A931A991A8D1A451A00011916181616BC
:102D2300152303000C0E020B040B0A0708000F30D7
:102D33003017181921301B1D1F3000034948424D1D
:102D43001817250502303016181920231A1C1E30B7
:102D530000383C3E363B3B352B432C7D1BA11BC728
:102D63001CAD1BB31BA31C731C791C851C7F1C028D
:102D73000402010101010902691A6F1A631A9F1AF9
:102D830000000000000000BE040A751A871A15002F
:102D9300FA06F72C04007F00E8030C000E0028005D
:102DA30000000000090108100C0A030809000400D0
:102DB3000CFF1E1E05080403100F74F6120B598C2A
:102DC300088D09780812112775080B750900780812
:102DD300121127122DDC0244D8122DE3121F1922DF
:102DE300EA75F00BA4FAA8F075F00BEBA428FBEA44
:102DF300FCEBFD7A237B0022C082C0838A828B8313
:102E0300E0D2E7F01221410240E8C082C08379009A
:102E130012330D126485C082C083900334125203AF
:102E2300D083D082C3E09CA3E09D500C126B59FA6F
:102E3300A3E0122E3E6001090240E8FBEA75F00BA5
:102E4300A4FAA8F075F00BEBA428FB900336E02A54
:102E5300F8A3E03B8882F583E0540F2274F7120B4A
:102E630059890812330D1233B3ACF075F00BE9A492
:102E73002CF9900336E028FEA3E039FF74016508BE
:102E830060067402650870208A828B8312339F1256
:102E930044D274026508701B12325E1233E670135B
:102EA3008E828F83E4F0800BEA2403FCEB123381E0
:102EB30012338DEEFAEFFB12290F02442F74F41232
:102EC3000B5912748079008E828F83E06076890AB1
:102ED300890B8065E50A75F00BA4FAA8F075F00B71
:102EE300E50B122E4B7046E50A75F00BA4F8AAF019
:102EF30075F00BE50B1233C58E828F83E085088254
:102F03008509831234A7850882850983A31244D2D5
:102F1300EE2403FCEF12338A1242A6125EFFAA08C4
:102F2300AB0912290F790190033412590CE50A24D5
:102F330001F50AE50B3400F50B123266E50A9AE552
:102F43000B9B409002467E74F5120B59EAFEEBFF91
:102F5300740B12141A1242AB750A01EC4D602BEC80
:102F630012749CED1264851244CA79011228EBE5B0
:102F7300084509606F850882850983A312748A79DD
:102F830002AA08AB091228EB805AE5084509602B11
:102F9300126489124B4B1242A71233D0700CEEFA13
:102FA300EFFB1228E5E9F50A80CBEE2403FA12338E
:102FB3000870317903EEFAEFFB80CA8E828F83A308
:102FC300E064FE7003A3E0F4700BEE24030A0A0A24
:102FD300123308700CEEFAEFFB1228E5E9F50A80CC
:102FE30003750A00A90A7F03020E5274F7120B59E4
:102FF30090033412443FEA4B602FEA75F00BA4FAB6
:10300300A8F075F00BEBA428FBEAFEEBFF121E9B66
:1030130090033612443F9003361257516012EEFC70
:10302300EFFD7900121DFF8007900336E4F0A3F053
:1030330002442F74F7120B597E007F008033EEF8A1
:10304300EFF9E875F00BA4F8AAF075F00BE9A42AE0
:10305300F9900336125C1A88828983E0A2E7500E46
:10306300C2E7F0AC82AD83EEFAEFFB122933123CD8
:10307300C412307C40C802442F900334124EBBC3A9
:10308300EE98EF9922C082C083EC4D600512274170
:1030930080097C087D007900121DFF0240E874F668
:1030A300120B597900EA4B6018780088081267CC34
:1030B300EB126B5560047901780808E8C394084063
:1030C300EA0244DD74F7120B5974F31211D3ECFEC8
:1030D300EDFF851882851983E4F00412141AEAF0CF
:1030E300A3EB125C85740312141AAC82AD83EEFA5F
:1030F300EFFB12284FEEFAEFFB12283D02442A742D
:10310300F7120B5974F31211D3ECFEEDFF851882FD
:10311300851983E4F0EAFCEBFD740312141A1234EC
:10312300A0740112141A1244C68E828F831244D2E1
:1031330074FE68700374FF6960047901800279008A
:1031430002442A74F7120B59EAFEEBFF1231A47002
:10315300141231AF8E828F83E0F4F88A828B83E07E
:1031630058F012290FA90802442F74F7120B59EAD9
:10317300FEEBFF7508008E828F83E060221231A47C
:10318300701D1231AF8A828B83E08F838E82F8E0C9
:1031930058700CE0F88A828B83E048F012290F8084
:1031A300C41228F1E9F50874016508221274951216
:1031B30033B71232F9FAA3E039FB2274F4120B5934
:1031C3008A088B097C007D0012325E12338D123324
:1031D3001E1274877900850882850983A3E064FE43
:1031E3007003A3E0F460717E007F008062EEFAEF6B
:1031F300122E3E6057EEFAEFFBEA75F00BA4FAA825
:10320300F075F00BEBA428FB900336E02AF50AA334
:10321300E03BF50B850882850983A3125BCB850A06
:1032230082850B83A3E06A7003A3E06B701EE50A3B
:103233002403FAE50B123309700AE50A2403FCE5BB
:103243000B12338A123312790112649B123CC4129B
:103253003266EE9AEF9B409502467EEA24030A0A01
:103263000AEB22900334126072C32274F3120B59D7
:103273008A088B098A828B83A312748A12330D12F4
:103283007487750C0012325E12330970547E007F0E
:103293000080491232EBFAA3E0398A82F583E054C5
:1032A3000F60361232EBF50AA3E039F50BE50A2479
:1032B30003FCE50B1233943400FB12273BE9640152
:1032C3007017850A82850B83A3126133A31244D23C
:1032D300123312750C0112649B123CC412307C40F1
:1032E300B2A90C7F05020E52EEF8EFF9E875F00B68
:1032F300A4F81232F922AAF075F00BE9A42AF99086
:103303000336E02822EF1233E02212749BEB2212E1
:10331300331E126496EEF0A3EFF022E50812749CBC
:10332300E5092274F5120B59EAFEEBFF8E828F83B7
:10333300A312748A7C007D00EE24030A0A0AEF12AA
:10334300338DEEFAEFFB1228F1E9F50A7401650AF1
:1033530070291274951233B3AAF075F00BE9123386
:10336300C5850882F58312339F1233D0700DE508AB
:103373002403FCE50912338112338D022FE7340055
:10338300FDEE2403FAEF221233943400FB12284F8C
:10339300223400FDE5082403FAE50922A31233A42D
:1033A300221233A822E0F8A3E0F98E828F83A322AE
:1033B3001233B7223400F583124EBFE875F00BA425
:1033C300F8221232FFF508A3E039F50922E8F0A349
:1033D300E9F0E5082403FAE5091233E0221233E6A3
:1033E3006401223400FB12283DE92274F3120B59C5
:1033F30074E61211D3127480750C017508007509F7
:1034030000750A00750B00851882851983E4F0EEB8
:103413002403FCEF3400FD740312141A1234A0E9E0
:1034230064017023740B12141A1244CA7401121427
:103433001A125BCF7003A3E0696051851882851966
:1034430083858208858309740D12141AE41234A744
:10345300740E12141A1244D2740D12141AAA82ABE7
:1034630083121439E96401700B740D12141A8582E6
:103473000A85830B780A121127AC08AD09EEFAEF1F
:10348300FB1228DF7402121155E9F50CEEFAEFFB7B
:10349300121433A90C741A1211550232E61237733F
:1034A30012143F2212443A124EBB22C082C08378C8
:1034B300007900800312359E123266E89AE99B5028
:1034C30029E8FAE9FBEA75F00BA4FAACF075F00B06
:1034D300EBA42CFB900336E02AFCA3E03B8C82F5A3
:1034E30083E0540F70CF7900800279010240E8C075
:1034F30082C083902D91124F11EC75F012A4FCA899
:10350300F075F012EDA428FD79FF7AA57B0C121D4E
:10351300FF0240E874F7120B59E9FEEAFF7A007BD9
:1035230000780079008028E8FCE9FDEC75F012A42E
:10353300FC85F00875F012EDA425081239B3C39E7B
:10354300400AE0FCEFC39C4003123B9912359E12E4
:1035530039A740D302442FC082C08378007900800A
:103563000312359E123592501F1239B7F470F2E8E8
:1035730075F012A4F8AAF075F012E9A42AF974A55B
:1035830028FA740C39FB80047A007B000240E8902F
:103593002D91123A77C3E89AE99B22E8240108E9BE
:1035A3003400F92274F0120B5974F31211D38A0AFE
:1035B3008B0B8C0C8D0D8908EC450D6016AA0CAB9A
:1035C3000D12148D8A0E8B0FAE0EAF0FEE4F6003EC
:1035D3000236651214638A0E8B0FA80EA90FE8FE3C
:1035E300E9FFE849607C902DA51236C76022740379
:1035F300650860067404650870167A04790312146A
:103603005D902DA51236DE40077A007B000236C49A
:10361300902DA31236C7601B7401650860067402FF
:103623006508700F7A02790112145D902DA312368A
:10363300DE50D68518828519837401F012141A128C
:103643005EFFAC0CAD0D740312141A12376C740BBD
:1036530012141A1242B31248B4E4125EE712199D0F
:103663008004EE4F604A780074FF2508C394045029
:103673000278048E828F83125EFF8E828F83A3A3D0
:10368300A3A3E508F0E88E828F83A3A3A3A3A312C9
:103693005F07120901123A8E8E828F83A3A3A3A31D
:1036A300A3A3A3F0123A851213EF12647F1213E35C
:1036B3001236CC4005901201E4F0121877EEFAEFBF
:1036C300FB024EC512602149227A04790012145D6F
:1036D300902D91126B3BEA98EB99221236F7758382
:1036E3002D758291E493C398F8A3E49399F9C3EAFF
:1036F30098EB9922E493F8740193F92274F2120B74
:103703005974F31211D38A088B09ECFEEDFF750A85
:1037130000EEFAEFFB12148D8A0C8B0DA80CA90D89
:10372300E849603E88828983E065087004A3E06508
:1037330009602F88828983A3A3A3A3E0C3940550C0
:103743002112632D8518828519837401F012141ACE
:10375300126331EEFCEFFD740312141A12376C7509
:103763000A01A90A740D0259C312377312144B22AA
:10377300AA82AB8312284F851882851983AA82AB4C
:10378300832274F6120B591237C1600FA3A3A3A3AC
:10379300E014C3940450047901800279000244DDEB
:1037A30074F6120B591237C1600FA3A3A3A3E0143D
:1037B300C3940250047901800279000244DD12149B
:1037C300878A828B83E58245832274F6120B591212
:1037D30037C1600BA3A3A3A3E0700479018002792E
:1037E300000244DDC082C083EAFCEBFD7A007B006B
:1037F3000240E5C082C0837C007D000240E574F492
:10380300120B5974F31211D3EAFEEBFF8C0A8D0BE2
:10381300C3EC94F8ED94FF4007EE4F70030238BAFF
:10382300750800750900802E851882851983740137
:10383300F0123CEC12141A123CFA601374031214C3
:103843001AAC82AD83EEFAEFFB12273BE97049E530
:10385300082401123A53902D91E4126029E5089847
:10386300E509995052E50875F012A4F8AAF075F02D
:1038730012E509A42AF9126B6E60D4EE4F70A97495
:10388300FF650A700474FF650B60C4123CDC650AB3
:103893007004A3E0650B70B7E50875F012A4F50892
:1038A300A8F075F012E509A428F50974A52508FA0E
:1038B300740C3509FB80047A007B0002467974F4AA
:1038C300120B5974F31211D375080012148D8A0A5E
:1038D3008B0BAE0AAF0BEE4F602A851882851983D6
:1038E3007401124434F8A3E0F9740B12141A12454C
:1038F3005712142D7C127D0079FFEEFAEFFB121D97
:10390300FF7508011236CC50099012017401F012B0
:103913001877A90802467974F7120B59E9FE74FE69
:103923006A700374FF6B780079007005805212355A
:103933009E1239A7504AE8FCE9FDEC75F012A4FC8D
:10394300AFF075F012EDA42F1239B3F460E0E8FC88
:10395300E9FDEC75F012A4FC75F012EDA42FFD74D3
:10396300A52CF582740C3DF583E06A7003A3E06B2C
:1039730070BC80091239B714C39404401712359EE2
:103983001235925018EE70EC1239B764016005E0FD
:10399300640370E9123CCDFAA3E0FB80047AFE7B5A
:1039A300FF02442F902D91124F15C3E89CE99D22ED
:1039B300123BCE22E8FAE9FBEA75F012A4FAACF066
:1039C30075F012EBA42CFB74A92AF582740C3BF559
:1039D30083E02212149F0240E8C082C083790180F1
:1039E300F274F0120B598A0A8B0B7A0479011214C0
:1039F3005D8A0C8B0DEA450D603EEAC333FAEB3367
:103A0300FB121E9B8A088B09AE08AF09EE4F602399
:103A13007AFE7BFF1214A574FE6A700374FF6B6059
:103A23001B85088285098312443FE5082402123A64
:103A33005380E1750C0080047E007F00850A828537
:103A43000B83E50CF0EEFAEFFB024ECAE508240700
:103A5300F508E5093400F50922902D91124F15C39D
:103A6300EA9CEB9D22E5082402FCE5093400FD7A7B
:103A7300227B0022E493FA740193FB22121DF37458
:103A83000322126490E4F09089E722E88E828F8308
:103A9300A3A3A3A3A3A3A3A3123AB07401123AB09E
:103AA300A3F0EE2410126493E4F0A3F0221248C0B2
:103AB300A3A3A32274F4120B5974FE1211D3851815
:103AC30082851983E4F0A3F0FE8067EEF8EFF9E84E
:103AD30075F012A4F8AAF075F012E9A42AF974A5F6
:103AE30028F50A740C39F50B780A121127750808A2
:103AF30075090078081211278E088F097403780856
:103B0300121315123A68121F197404121155850AFB
:103B130082850B83A3A3A3A3E0F4600F851882859A
:103B23001983E02401F0A3E03400F0EE24010EEF4A
:103B33003400FF902D9112711540908518828519DC
:103B43008385820885830978081211277508027511
:103B5300090078081211277C007D007A227B00126D
:103B63001F197404121155740202467BC082C0836C
:103B73007A007B00800419123B99123A5C501012B0
:103B83003BB8C3940550F0E970EC123BA280047A71
:103B9300007B000240E8EA24010AEB3400FB22EA3E
:103BA30075F012A4FA75F012EBA428FB74A52AFA97
:103BB300740C3BFB22EAFCEBFDEC75F012A4FCA8B1
:103BC300F075F012EDA428123BCE22FD74A92CF55A
:103BD30082740C3DF583E02274F7120B5974F312CF
:103BE30011D37E007F00023C80E50875F017A4F82E
:103BF300A9F0126DCFFAA3E0FBEEF8EFF9E875F048
:103C030012A4F8ACF075F012E9A42C123CDB6A7034
:103C130003A3E06B603FE50875F017A4F8AAF0EA88
:103C2300126DCEF8A3E0F9740112141AE068700360
:103C3300A3E0696020E50875F017A4F8EAF9742198
:103C430028FC740E39FD740312141AAA82AB831272
:103C5300273BE96014E50875F017A4F8A9F0741F71
:103C630028FA740E39FB1219A90508902DAAE493BA
:103C7300F8E508C3985003023BEC123CC4902D9125
:103C83001271155039EEF8EFF9123CCDF47003A31D
:103C9300E0F460E68518828519837401F0EEF8EF8D
:103CA300F9E875F012A4F875F012E9A42AF9123CA8
:103CB300EC12141A123CFA60C175080080AD02447C
:103CC3002AEE24010EEF3400FF22E875F012A4F867
:103CD300AAF075F012E9A42AF9123CE02274A5288F
:103CE300F582740C39F583E02274A728F582740CED
:103CF30039124EB9740B22E8F0A3E912455F12148E
:103D030045E922C082C08390033D743FF0A374173A
:103D1300F090033F7439F0A37417F0900343744198
:103D2300F0A37415F00240E8C082C083900341748D
:103D330033F0A37417F00240E874F7120B59EAFE4C
:103D4300EBFF900377E06408601BE0640460168E69
:103D5300828F83E05403640170481242A61249C063
:103D6300E06406703D8E828F83A3A3E064FE70033C
:103D7300A3E0F4602D8E828F83A3A31244C6900325
:103D830068E0687003A3E069700BEE2415F582EF19
:103D9300126B5560081217FFE9F508800812180521
:103DA30080F67508C2EEFAEFFB121EA102316874A9
:103DB300F4120B598A088B098A828B83E0F8A3E0FB
:103DC300FAE82AFAE43400FB121E9B8A0A8B0BAE34
:103DD3000AAF0BEE4F6063850882850983E0FC7DA3
:103DE300007900121DFF8E828F83A3A312748A129F
:103DF30018418E828F83A3A3A3A312443F85088215
:103E0300850983E0F8EE28F8EF34001244CE8508E4
:103E130082850983A3E0C0E0EE240D126482D0E022
:103E2300F0121853EE240E126482E9125B2CE0C0E8
:103E3300E0EE2411126482D0E0F0EEFAEFFB0246CA
:103E43007E74F4120B5974EB1211D38A088B098C0C
:103E53000A8D0BE9FE900377E064046005E06408D3
:103E6300700479C2802EA3780812138BEE90037E20
:103E730012412612138B740512141AE9F0740412FA
:103E8300141A7401F0740712141AE4F0900377748F
:103E930002124083741502467B74F6120B5974EBBD
:103EA3001211D3EAFEEBFF12574E6003023F407A32
:103EB300077B00121E9B90033912443F12574E603A
:103EC300788E828F831213EF90033A1249C3121331
:103ED300E312734EC0E0123F4CD0E0F0EE2405FA3B
:103EE300EF3400FB8A088B098A82F583E0C0E01275
:103EF3003F47D0E0124675E0C0E0123F47A3D0E051
:103F03001244B31213EF8518828519831213E388C1
:103F1300828983E0C0E0740512141AD0E0F08508AA
:103F230082850983E0C0E0740412141AD0E0F074AF
:103F33000712141A124082800679108002790174E4
:103F4300150244DA123F4CA322900339E0FAA3E0AE
:103F5300F5838A82A3A3A3A322C082C08312574EF0
:103F6300600D900339126060900339E4F0A3F012FE
:103F730017691219490240E874F0120B5974EB12D5
:103F830011D3ECFEEDFF8908742512141A780C1274
:103F930013B8742912141AE0F9742A12141AE0FCE3
:103FA300742B12141AE0FD740F697005740F6C60A2
:103FB300129012A2E06402700579C102407DE9C348
:103FC3009C40F6900378780C12138BE50890037EDF
:103FD300F0E990037CF0ECA3F0ED90037FF074FF25
:103FE3006A700374FF6B701D9012ADE0F47003A34D
:103FF300E0F47005121E11800C9012AD124407E814
:10400300F0A3E98007900375EAF0A3EBF0EE4F60AD
:1040130017EEFAEFFB121A09E96401700BEEFCEFDD
:10402300FD7A897B03122741900368E4F0A3F090A3
:10403300036BF0A3F0900388F09012A2E064027087
:104043000890037C740FF0A3F09003777405F014C9
:1040530012141AE4F09003781213EF85188285196D
:10406300831213E390037EE0C0E0740512141AD0A8
:10407300E0F0740712141A1240827415024EC7E45A
:1040830012455F12277122C082C083900338E0700B
:10409300031222191214F9804CC082C08390033892
:1040A300E09012007004E4F0802D7401F090033866
:1040B300E0F460237C41E0C394415002E0FCECF85F
:1040C300E0C398F0EC75F0E8A4CCA8F075F003A475
:1040D30028FD7A80124F1D7A007B127941122759ED
:1040E3008003121493D083D08202110774F4120B4D
:1040F3005974EB1211D38A088B098C0A8D0B900328
:1041030077740112412612138B740512141AE9F005
:10411300740412141A7403F0740712141A124082EE
:10412300023E971244BE78082274F7120B597C01A1
:1041330012150B02442F74F2120B5974FC1211D393
:10414300E9851882851983F0EAFEEBFF8C0A900358
:104153007512520312175D8A088B09EA4509700527
:1041630079CA0242A18A828B83A3A3A3A3A3A3A395
:10417300E064FE7003A3E0F4700579C30242A190EA
:104183000375125BCB1219AF850882850983A3A33C
:10419300A3A3A3A3A3A3A3A3E00490038812440EA1
:1041A300740212141A7402F01412141AAA82AB8342
:1041B3001218B38A0C8B0DAE0CAF0DEE4F700302C9
:1041C30042981242A6124B3F7406F0A3A882A98319
:1041D30090036212609D124E98F0EE2413126482D3
:1041E3007401125EDF7440F0A3E4125B25A3A312F3
:1041F30042B31244D2EE2411126482E50AF0EEFABD
:10420300EFFB1214CFE9FE600302429A9003777426
:1042130009F0123A4FAA08FB794B122759850882F5
:104223008509831244001244D290036AE0F885188A
:1042330082851983E068600CE090036A12455B791C
:10424300E11227599012901244C6901292E06870BE
:1042530003A3E069601A90033B1244D290129212B6
:104263005BCB12186B9012921252037A01124F1DFC
:104273007A007B049003C2E0F9121F559012921248
:1042830042AB74027808121315AC08AD09FA7B042B
:10429300124F1F80027E109005C1E4F0EEF9740402
:1042A3000259C3EE12649122E0F508A3E0F5092256
:1042B3001242B7221233A8A32274F5120B5974E2E7
:1042C3001211D3851882851983ECF0A3EDF0EAFE71
:1042D300EBFF8908742912141AE0F509742C1214DF
:1042E3001AE0F50A900377E064046005E06408705F
:1042F3000579C20243F8742A12141AE064FE7003AB
:10430300A3E0F4700579C30243F8900377740312B2
:10431300455B7950122759742A12141AAA82AB8367
:10432300794B122759851882851983124407124441
:10433300D2E50890036AF0742A12141A1244001288
:1043430044D2E50990036212440E74CE55094480A9
:10435300C0E0741212141AD0E0F09006BBE06004BF
:10436300640170087401250A900388F0740F121415
:104373001A7402F0742A12141A1244C6740712141F
:104383001AE8F0A3E9124445741012141A1244D225
:10439300740512141AE508F0741B12141AE4F09051
:1043A300037D740FF07A7D7B0379541227599003B0
:1043B3007C740FF07A7C7B03794712275990037C36
:1043C300E0C3940F5023740512141AE0C0E0740282
:1043D30012141AD0E0F0740412141A7401F00412C7
:1043E300141AAA82AB8312277D740512141AAA82A7
:1043F300AB8312275F741E121155022FE9124EBBB5
:1044030090036B22124EBB90037522F0EEFCEFFD7E
:104413007A897B031227412274F7120B59EB90031D
:104423007FF012174B8005740D1211557F01020E98
:104433005212443AA3E0221244B3A322EAF0A3EBBC
:10444300F0221244B9F8A3E0F92274F7120B59745D
:10445300F81211D3EAFEEBFF7900900377E06408CA
:10446300704485188285198374FDF0A374FFF012DC
:10447300183B740212141A12443F740512141AE4FE
:1044830012443AE0C0E0740412141AD0E01244AEAD
:10449300C0E0740612141AD0E0F0740712141AE480
:1044A30012455B121895740802442C1244B3E0229F
:1044B300F08E828F83221244BEE022F0851882851B
:1044C300198322124EBB22E0F8A3E0F9126490E8AC
:1044D300F0A3E9F02274041211557F02020E52C0B8
:1044E30082C08390034974D7F0A37415F09003EF4F
:1044F30074EFF0A37418F090034D740DF0A37416C9
:10450300F090034F74D7F0A37415F0900351741314
:10451300F0A37416F00240E874F4120B5974F91204
:1045230011D38A088B098C0A8D0B85188285198310
:10453300780812138B740412141AE9F07405121418
:104543001AE4F0740612141AE412455B1214E174AF
:104553000702467BE8F0A3E912455F221244BEAA94
:1045630082AB832274F4120B598A088B098A828BDB
:104573008312649EEE4F7003024673900312125728
:104583005160158A828B83A3A3E0F9EEFAEFFB90C7
:1045930003131249C31229BC8E828F83A3A3A3A33F
:1045A300A3A3A3A3A3E0640270748E828F83A3A347
:1045B300A3A3A3A3E05402700302464585088285A2
:1045C3000983A3A3E064E960798E828F83A3A3A305
:1045D300A3A3A3A3A3A3A3E070149012A5E0048E46
:1045E300828F83A3A3A3A3A3A3A3A3A3A3F08E82D6
:1045F3008F83A3A3A3A3A3A3A3A3A3A3E0141246FC
:1046030075A3A3A37404F09012A6125ED9E8F0A3D5
:10461300E9126FB28B0BEA450B70031269908E821D
:104623008F83A3A3A3A3A3A3A3A3A3E06402601202
:104633008E828F83A3A3A3A3A3A3A3A3A3E0640650
:10464300702E8E828F83A3A3A3A3A3A3E0A2E05023
:104653001F850882850983A3A3E0F9EEFAEFFB1215
:10466300289D8E828F83A3A3A3A3A3A3E054FEF06C
:1046730080091248BC22740D1211557F04020E5298
:1046830074EC120B5974DD1211D3EAFEEBFF8C08A4
:104693008D09743712141A780C1213B8750A007442
:1046A3000512141AAC82AD8312280D741212141A57
:1046B300E07008741512141AE06020740512141ABD
:1046C300E0A2E6501E8E828F83A3A3A3A3A3A3A37A
:1046D300A3A3125BCB1218CBE96008790312272935
:1046E3000248A2740512141AE0540C640470057590
:1046F3000B018003750B00E0A2E55035750A01E557
:104703000BA2E0402C1218418A108B11A810A9119A
:104713001242A6E0687003A3E069601574051214E1
:104723001A127491125BC71228A9E96004790480F4
:10473300AC740512141AE0A2E65022740612141A7D
:10474300E054037018740512141AE0540C640C60DE
:104753000CE0540C640860057510018003751000AB
:10476300740512141AE05403F8740268700C12747E
:1047730091125BC71227FB0248A2740168703AE5E5
:1047830010A2E050031248AA740512141AA882A9B1
:1047930083740312141AE8F0A3E9124EAF8518824A
:1047A3008519831248B4E0C0E0740212141AD0E0F1
:1047B30012455B12298D0248A2E860030248A290C9
:1047C300035FE0640170108E828F83A3A3A3A3A36E
:1047D300A3E07003024730742212141A7402124EBB
:1047E300AF741A12141A1244D2E510A2E0500874DE
:1047F3000512141A1248AAE50BA2E0506AEE240F20
:10480300F582EF126B55C0E0741712141AD0E0F062
:1048130090031412575170030248A21218418A12CE
:104823008B13A812A913741A12141AE0687003A345
:10483300E069706B780C12111F780A12112B78083B
:10484300121127A910740C12141AAC82AD837421AF
:1048530012141AAA82AB839003141249C01229BC02
:1048630074071211558038780C12111F780A12112F
:104873002B7808121127900375120F1FEE2412F5DF
:1048830082EF126883742312141AAC82AD83740E00
:1048930012141AAA82AB8312289174091211557447
:1048A30023121155026F7D12749112606E12280744
:1048B30022E8F0A3E91248BC221248C022F08E82FB
:1048C3008F83A3A3A3A3A3A32274F7120B591220CC
:1048D300ED02442F74F7120B591220F902442F747E
:1048E300F7120B5912210502442FC082C0831220F4
:1048F300FF0240E874F7120B5912210B02442F7484
:10490300F7120B59740912141AE0F50878081211FA
:104913002B122117740102442CC082C0831221235D
:104923000240E8C082C0831221290240E874F712D2
:104933000B5912212F02442F74F7120B5912213BEA
:1049430002442F74F7120B59EAFEEBFF8908740136
:1049530065087014790012164F902DB5E493FC7915
:1049630000EEFAEFFB1215C502442F74F4120B5933
:1049730074F91211D3E9FE8A088B098C0A8D0B7422
:104983001312141A125BCB90060E1257516027EEC6
:10499300851882851983F0740112141A780812138A
:1049A3008BEAF8EBF9740512141A12455790060EA8
:1049B3001249C01229BC024552FB90034BE0F8A3F5
:1049C300E0F583888222C082C08312216B0240E813
:1049D30074F7120B59901203E0F97E00800B126BEF
:1049E30041540D64017001190E124BCD5003E9704F
:1049F300ED02442F74F7120B59901204E0F97E0074
:104A0300800B126B41548D64817001190E124BCDD2
:104A13005003E970ED02442F74F2120B59890BE92C
:104A230075F006A4240CF508E5F0123A578A0CE554
:104A330008250CFAE5093400FB121E9B8A0C8B0D2A
:104A4300AE0CAF0DEE4F6027AC08AD097900121D17
:104A5300FF1242A6E50BF0EE2508F8EF3509F98EB3
:104A6300828F83A3A3A3A3A3A3A3A3A31244D2EEDE
:104A7300FAEFFB0259C674F6120B59EAFEEBFF126A
:104A830015A1901202E0F8E9C3984009900345127A
:104A93005BCB1215A7EE2402F8EF1261E3900347F4
:104AA30012609D900347E004F0EEFAEFFB1215ADA0
:104AB300850882850983E0026699C082C0837900F4
:104AC300900345800109125BCB8A828B83E5824583
:104AD3008370F20240E874F7120B59EAFEEBFFEE23
:104AE3004F6056900345125751604E888289837AEE
:104AF300007B00EE65827003EF6583600FAA82ABD3
:104B030083124B3FE5824583602F80E79003451274
:104B13004B4B687002EF698E828F8370081244C614
:104B23009003458003126F8F1244D2EEFAEFFB120B
:104B3300295DEEFAEFFB121EA102442F124B432212
:104B4300124EBF8882898322124EBBEE22C082C0DE
:104B530083900345800488828983125751600B88B0
:104B6300828983125203EC4D70EC8A828B83E4F0CA
:104B7300A3F0E84960068882898380039003451285
:104B8300443F0240E874F7120B5990034580048AAE
:104B9300828B83124BC84B60257E0080010E124B23
:104BA300CD50ECEE75F006A4FCADF0EA2CFCEB3D29
:104BB300FDEC2410F582ED124C1D70E180047A00A7
:104BC3007B0002442F126072EA22124C26EEC39835
:104BD3002274F7120B597D0080010D124C22EDC394
:104BE300985034ED75F006A4FEA8F0E8FFEA2EFE17
:104BF300EB3FFFEE2410F582EF124C1D70DCED75D8
:104C0300F006A4FEE8FFEA2EFAEB3FFBEA2411F5D7
:104C130082EB126B554CF002442F126B6169221226
:104C23004C262212749BEB3400F583E0F82274F6D1
:104C3300120B591216C77A007B008025EAF8EBF9AC
:104C4300E875F006A4F8ACF075F006E9A42C126040
:104C53004712735CA3E412613DF0A31273621274F2
:104C6300D9902D9D1236D640D37A007B00801C8AC2
:104C7300088B0974037808121315125AF3A374FEF0
:104C8300F0A304125F1DA3E41274D9902DA9124C52
:104C9300D040DC7A007B00801D8A088B097403787E
:104CA3000812131574471267CD741112701474FE31
:104CB300F0A3041274D9902DAF124CD040DB902D89
:104CC300A8E493900353F0124CDA0244DDE493F822
:104CD300C3EA98EB9400227CE87D037A107B009072
:104CE30003C2E0F9121F4F2274F0120B5974F5122C
:104CF30011D38A088B09890A8C0BE9A2E050147539
:104D030008FC7509FFA2E15005D2E4024DADD2E3E0
:104D1300024DAD1259B27003A3E069700579000228
:104D23004E7AAC0A7902AA08AB091216A3E960ED20
:104D3300E50AF50C780C12112B79027CFE7DFFAA93
:104D430008AB0912572D121155E96003024E78E59D
:104D53000AC2E5F50A9003B5E07051E50AA2E64000
:104D63004B740312141AAC82AD83AA08AB09122840
:104D730037E9703212504E8A0C8B0DA80CA90DE83E
:104D8300FEE9FFE8496025EE24020A0AEF1233E642
:104D9300601AEE2402FCEF3400FD740312141AAA05
:104DA30082AB83122741E50AD2E5F50A900348E076
:104DB300F50C900368E0F50EA3E0F50F780E1211E1
:104DC300277D017C00900348E0F9AA0EAB0F121671
:104DD3005B7402121155E9F8900348E004F0E860AF
:104DE30003024E78E50AA2E55004740E80027406AD
:104DF300C0E0740112141AD0E01264AF8A0E8B0F54
:104E0300AE0EAF0FEE4F6069124E98124EAF88820E
:104E130089837401F07478550AA31274A1E50C1206
:104E230074A1A3E508F0E509124E87E4F0E50AA2B0
:104E3300E5500F740312141AAC82AD83E8240612F2
:104E43004E7E8E828F83A3A374FDF0A374FFF0E5DF
:104E53000B6015902DB6E493F8E50BC3985009EE5B
:104E63002413126482E50BF0EEFAEFFB1214CF80E9
:104E7300067910800279C7740B8049FAE93400FB84
:104E83001227412288828983A3A3A3A3124E9322CC
:104E9300126216A322EE24171264937401F01218FF
:104EA3003BEE241A126493EAF0A3EB22F0127495FA
:104EB3003400124EB922F583124EBF22E0F8A3E06C
:104EC300F922740D1211557F08020E5274F6120B5B
:104ED300597A007B1012699D60089003D47401F025
:104EE30080299006B1E064019012A37006E0FC797A
:104EF300018004E0FC79037A007B001215C5902D34
:104F03009B124F117A007B10124F1F0244DD124F88
:104F13001522E493FC740193FD227B009003C2E00D
:104F2300F9121F492274EC120B598A088B098C0C55
:104F33008D0D890E741412141A12590C741612144E
:104F43001AE0F510A3E0F5111218CBE960077AFF18
:104F53007BFF02504B9012A2E06402600302503EBA
:104F63007900AA08AB091216A9A90E12169D8A1276
:104F73008B13AE12AF13EE4F70030250268E828F47
:104F830083A3A3A3A3A3E064018E828F83A3A3704F
:104F930069125BCB8E828F83A3A3A3A3A3A3E05445
:104FA300186043902DB4E4938E828F83A3A3A3A3AD
:104FB300F0EA650C7003EB650D6014EA650A700393
:104FC300EB650B600AEA65107003EB6511701F78DF
:104FD30010121127AC0AAD0BAA0CAB0D1219C77432
:104FE300021211558008900367126987A3F074FEBB
:104FF3006A700374FF6B601D804EA3A3A3E0640378
:1050030060298E828F83A3A3A3A3A3E06404700506
:105013007AFE024F538E828F83A3A3A3A3A3E064DC
:105023000270089003B4E06402701012504E8B0BB0
:10503300EA450B6006AA08AB09800DAA08AB0990E4
:1050430003491249C01229BC026F7D9003751257A0
:105053003312198B2274F7120B59EAFEEBFF121469
:1050630075E9700AEEFAEFFB121481E96006EEFAB5
:10507300EFFB80047AFE7BFF02442F74F0120B597E
:105083008A0A8B0B8C0E8D0F89097508001218CBB9
:10509300E9790060030251F5AA0AAB0B1216A9A91C
:1050A3000912169D8A0C8B0DAE0CAF0DEE4F6019D5
:1050B3008E828F83A3A3A3A3A3E0640270559003FE
:1050C300B4E0640270030251F3AA0AAB0B90034FDE
:1050D3001249C01229BC1214878A0C8B0DA80CA983
:1050E3000DE84970030251F388828983A3A3A3A324
:1050F300A3E0A2E040030251F3750C01A2E1506862
:105103007901AC0AAD0BAA0EAB0F1215F5E9706469
:105113000251F38E828F83A3A3A3A3A3E06403703E
:1051230005750C0280528E828F83A3A3A3A3A3E0F1
:10513300640160030251F39003751252038E828F50
:10514300831255588A0C8B0DA80CA90DE84960D120
:10515300902DADE493FA88828983E0C39A50C2A369
:10516300E060030251F380B988828983A3A3A3A3D8
:10517300A3D2E1F0EE4F603A8E828F83A3A3A3A361
:10518300A3A3E05418602B7508018E828F83A3A319
:10519300120F1F750CFE750DFF780C121127790085
:1051A300AC0AAD0BAA0EAB0F1216BB740412115549
:1051B300803E900368E0650E7004A3E0650F7014F1
:1051C300902DB5E493FCA909AA0AAB0B1215C5757A
:1051D3000801801CA90CAC0AAD0BAA0EAB0F12156B
:1051E300F5E9700C750801A909AA0AAB0B12164F51
:1051F300A908024ECAE50C2415F582E50D12649642
:10520300125EF32274EA120B5974F01211D38A0C52
:105213008B0D8C088D09742612141AE0F514A3E083
:10522300F5157512069003F5125751602390037517
:10523300125203AA08AB091219B58A108B11EA4559
:1052430011600D8A828B83A3E070057900025540BB
:10525300E50C241DF50EE50D3400F50F850E8212C5
:10526300573DF51388828983A3A3A3E0FA88828933
:1052730083A3A3A3A3E0F9EA2400FEE439FFAA0869
:10528300AB09121655850E82850F8312557BE029D3
:10529300F50BE50AA2E5500375120E7487550A70E3
:1052A300177418550A6418600FE50C2417F582E586
:1052B3000D126B55651260077901122729808C53F3
:1052C3000A78C3EE94F8EF94FF501D7900EEFAEFDD
:1052D300FB12554A601288828983A3A3A3A3A3A3C5
:1052E300E05418600302524E78081211277D001211
:1052F300556E121155E9F8740368700302524EE8B3
:1053030060030253B97418550A700302546EE50A18
:10531300D2E0F50AA2E45004D2E1F50AA90A125B2D
:10532300C412554A605388828983A3A3A3A3A3A36A
:10533300E05418604488828983A3A3A3A3A3E064F1
:10534300017036E5104511603090037512520388E1
:105353008289831255588A0E8B0FA80EA90FE8492C
:10536300601788828983A3E0600F8510828511838B
:10537300A31266A4500302524EE50AF50E780E12EC
:10538300112B125561121155E9702B7C007D00859C
:10539300148285158374FFF0A3F0850C82850D8339
:1053A300A3A3A3A3A3A3A3A3E060031251F8A90B90
:1053B300125BC412211D851482851583E0F47003EA
:1053C300A3E0F460399003B4E06402700302524E28
:1053D3001258FDE0FAA3E01249BC1229BCEA6508A1
:1053E3007003EB6509600302524EEEFAEF1249BCFB
:1053F3001229BC851482851583EAF0A3EBF07808A3
:105403001211277D0112556E121155A90AEEFAEFFA
:10541300FB1216A98A088B09A808A909900368E05A
:10542300687003A3E0696003025531EEFAEFFB12E3
:1054330014878A088B09A808A909E849606E88823D
:105443008983A3A3A3A3E06401600D88828983A356
:10545300A3A3A3E064027054851882851983AC82E8
:10546300AD83EEFAEFFB1228378055900361E060BD
:105473000FE50AF50E780E12112B12556112115514
:10548300E50AF50E780E12112B79027CFE7DFFEEF4
:10549300FAEFFB12572D121155E960030253B98538
:1054A300148285158374FFF0A302540012183BEA9B
:1054B300FCEBFD851882851983AA82AB83122741F1
:1054C300850C82850D83A3A3A3A3A3A3A3A3E06455
:1054D30001700F1251F8740812141AAA82AB8312C6
:1054E300274112570712631B4430F508780812113D
:1054F3002B740112141A8582088583097808121106
:1055030027740B12141A85820885830978081211EF
:1055130027E513F508780812112B7900EEFCEFFD4F
:10552300125BC41215EF740612115502524E125734
:105533000712648512557BE50BF012185374101291
:1055430011557F0E020E5212169D8A0E8B0FA80E56
:10555300A90FE84922A3A31260721219B522790197
:10556300AC08AD0912606712572D22AC0BA91312B8
:10557300606712165B740222126323A3A3A3A32200
:1055830074F0120B5974F01211D38A0C8B0DECFAD0
:10559300EDFB750F089003F5125751601412669DC9
:1055A3008A828B83E58245836007A3E070030257F9
:1055B30002125707340012573DF50B888289831274
:1055C3005710E0FBEC2400FEE43BFF88828983A3B1
:1055D300A3125710A3A3E0FBECF508E43BF50988FD
:1055E300828983A3A3A3A3A3A3A3E0F50EE50AA241
:1055F300E45003750F10A2E550067408250FF50F4C
:10560300748F550A700FE50C2417F582E50D126BA4
:1056130055650F60087901122729025702530A7052
:105623007800E50AA2E45022125707126B552408AA
:10563300FCA3E03400FD740812141AAA82AB83128F
:1056430027417808E50AC2E4F50AE50AA2E55028ED
:10565300125707126B5528F8A3E03400F9E8240821
:10566300FCE93400FD851882851983AA82AB831275
:105673002741E50AC2E5F50AAC0EA90BEEFAEFFBEA
:10568300121661E9F87403686075900368E06E7040
:1056930003A3E06F605EE87054E50AF50F780F121C
:1056A300112B12571E121155E97054780A12112B3F
:1056B300740112141A85820C85830D780C1211273C
:1056C300740B12141A85820C85830D780C12112722
:1056D300E50BF50A780A12112BA90EAC08AD09EEF9
:1056E300FAEFFB1215EF7406121155801274046859
:1056F300700D80B7780A12112B12571E12115574B0
:1057030010024EC7E50C241DF582E50D22A3A3A3C9
:10571300E0FC88828983A3A3A3A3227901125904FD
:1057230012649612573312572D221216197401223E
:10573300E0FCA3E0FDAA08AB0922F583124B43A3C7
:10574300E0F50A88828983A3A3E0229003391260DB
:10575300CE2274E8120B5974F51211D3EAFEEBFF53
:105763008C088D098914742312141AE0F50F74241C
:1057730012141AE0F512A3E0F513742612141AE0BA
:10578300F516A3E0F517742812141AE0F50EA90F05
:105793001216678A108B11740112141A7408F0E53B
:1057A3000EA2E450037410F0E50EA2E55004E024C9
:1057B30008F0851882851983AA82AB831218B38AED
:1057C3000C8B0DEA450D70030258E4EA2417F582A9
:1057D300EB1258F612183BE50C241AF582E50D126C
:1057E300648512443F740312141AAC82AD83AA1069
:1057F300AB11122837E9601D1258EE740312141A04
:10580300A882A983E50C2418F582E50D126485E8C6
:10581300F0A3E98024E50EA2E4501FE5106E7003A7
:10582300E5116F70151258EEE50C2418F582E50D9D
:10583300126485E512F0A3E513F01258FD12590C1A
:10584300850A82F5837402F0A3E50E125914E50F5D
:10585300F0EE850A82850B83A3A3A3F0EF850A826A
:10586300850B83A3A3A3A3125914A3A3A3E508F051
:10587300E509850A82850B83A3A3A3A3A3A3F0AAA7
:1058830010AB11121655E92514850A82850B83A3E3
:10589300A3A3A3A3A3A3F0750800E50EA2E45011EC
:1058A300AC12AD13E50A2408FAE50B124E80750815
:1058B30008E50EA2E55014AC16AD17E50A2508F865
:1058C300E50B3400F9E82408124E7E850C82850D21
:1058D30083A3A3E510F0A3E511F0AA0CAB0D1214FA
:1058E300CF740B1211557F10020E52E50C2416F5DE
:1058F30082E50D1264967401F02212590412649623
:1059030022E50C12749CE50D22E0F50AA3E0F50BE9
:1059130022F0850A82850B83A3A32274F2120B590A
:105923008A088B09ECFEEDFF890A79001259B270DF
:1059330003A3E069700479018073750B0190036818
:10594300E065087004A3E06509601F750B00780B20
:1059530012112BA90AEEFCEFFDAA08AB09121907D5
:105963007401121155E9F50B80417900EEFAEFFB52
:1059730012169DEA4B602B8A828B83A3A3A3A3A356
:10598300A3E05418601C7508FE7509FF780812110E
:10599300278A828B83A3A3120F1F1272B112115590
:1059A30080097901EEFAEFFB121577A90B80141227
:1059B30016A98A0C8B0DA80CA90D900368E0682228
:1059C3001211557F06020E5274F4120B5975088F8B
:1059D30075090F7A10126FB98B0BEA450B7003121E
:1059E3004CDA900353E014F0700C902DA8E49390DC
:1059F3000353F01216B57E007F00806C8508828504
:105A03000983A3A3A3A3E06059F46056E508240423
:105A1300F582E5091269817049850882850983A3A6
:105A2300A3A3A3A3E06403701979028508828509FF
:105A330083125203850882850983A3A3125BCB12C9
:105A430015F5850882850983A3A3A3A3A3E06401B5
:105A5300601085088285098374FEF0A304125B2518
:105A6300E4F0123CC4123A4F902DA1127115408CF0
:105A73007E007F0080391217E18E088F0974037846
:105A83000812131574072508FC74113509FD7A01F2
:105A93007B161217CFEA4B70DD8E088F09740378DB
:105AA30008121315125AF312735CE4F0123CC490FB
:105AB3002DA9E493F8C3EE98EF9400501B8E088F42
:105AC3000974037808121315125AFBE82407F582A8
:105AD300E912698170D680A17E007F00800A125B83
:105AE30006600214F0123CC412711240F102467EA9
:105AF300125AFB888289832274072508F8741135AA
:105B030009F922EEF8EFF9E875F006A4F8AAF075A2
:105B1300F006E9A42AF974A728F582741039F583ED
